:0200000019C025
:14003400CFEFD2E0CDBFDEBFC451D0400AEA08830024E0E097
:14004800F1E012E0E030F10711F00192FBCF0083E4E3F0E061
:14005C00A0E0B1E010E000E00BBFE433F10721F0C8953196A1
:140070000D92F9CF01D0FFCF25972AD16627772709C080E06B
:1400840091E0FB01E80FF91F84E180836F5F7F4F6030E1E097
:140098007E0798F30AE010E07BD1402F0F3F49F44EEB242F98
:1400AC000AE010E078D12BE10BE010E074D15B9AE8C07ED105
:1400C000002309F4E3C08E017DD18881863A09F0DDC05B983A
:1400D40073D1A02E0023E1F38E010F5F1F4F70D189818335A1
:1400E80009F05EC067D1A02E0023E1F38E010C5F1F4F64D153
:1400FC005FD1A02E0023E1F38E010E5F1F4F5CD157D1A02E6E
:140110000023E1F38E0156D1A880BB242C810AE0CAD02DE3E6
:1401240001E3C7D000E213E00BD12DE304E3C1D06C81772788
:1401380031C0262F0AE0BBD080E091E0FB01E80FF91F20817B
:14014C0005E2B3D00CE211E0F7D0CC24EE24FF2414C002E3B1
:1401600010E0F0D09E0104EF95D02880241A28822C2C3324A5
:1401740048805524241435040CF4C42CC70101967C0105E014
:1401880010E0950132D10E151F0528F70C2D26D16F5F7F4FA8
:14019C002A8033242616370608F0C9CF8981823569F406D150
:1401B000A02E0023E1F38E010D5F1F4F03D19E010B8168D0D6
:1401C40008810ED18981873599F4F6D0A02E0023E1F38E0152
:1401D8000D5F1F4FF3D0EED0A02E0023E1F38E01EDD02881FE
:1401EC000B8163D001E4F8D08981833409F56627772718C0D1
:14020000262F0AE058D02DE306E355D02DE303E352D000E26B
:1402140013E096D09E0105E23BD080E091E0FB01E80FF91F10
:14022800288020826F5F7F4F6030E1E07E0720F301E4D4D06A
:14023C008981823771F4BCD0A02E0023E1F38E010D5F1F4FCC
:14025000B9D00B811127A0D0A02EA882C3D089818737A1F4F5
:14026400ABD0A02E0023E1F38E010D5F1F4FA8D0A3D0A02E24
:140278000023E1F38E01A2D028810B8111278DD001E4ACD04F
:14028C005B9A17CF259608952A98802F80688EBD2DB427FE81
:1402A000FDCF22242EBC2DB427FEFDCF2EB4F90120822A9A3A
:1402B40008952A98802F8F778EBD2DB427FEFDCF2EBD2DB439
:1402C80027FEFDCF2A9A089584E085B98FE284B9222428B85A
:1402DC008FEF87B983E08BB98EEF8AB98CE090E09093C50025
:1402F0008093C40088E18093C1002CBC2D9A2B982A982A9AEE
:1403040008E210E01DD02A9881E08DBD81E58CBD00E117E228
:1403180015D080E38EBD2DB427FEFDCF2A9A089574D058016E
:14032C004427552705C003EE13E006D04F5F5F4F4A155B053C
:14034000C0F36CC082E080938100222433243092850020923E
:1403540084008AE090E08017910758F430928500209284003F
:14036800209084003090850020163106C8F308950AC02090C9
:14037C00C00025FEFCCFF80120802092C6000F5F1F4FF801D9
:140390002080222091F7089512BD01BDF89A00B50895AA92A5
:1403A40012BD01BD20BDAFB6F894FA9AF99AF999FECFAFBEF7
:1403B800A99008950091C00000780895AA92BA925801F8DF3D
:1403CC00002331F02090C600F5012082002701C001E0B990B9
:1403E000A99008952090C00025FEFCCF0093C60008950A9243
:1403F4001A928A939A93029FC001129F900D039F900D8C0183
:14040800999189911990099008955A934A93BA92AA920895CE
:0A041C00A990B990499159910895F3
:00000001FF
