:0200000019C025
:14003400CFEFD4E0CDBFDEBFC451D0400AEA08830024E0E095
:14004800F1E012E0E030F10711F00192FBCF0083E4E3F0E061
:14005C00A0E0B1E010E0E433F10721F0C89531960D92F9CFE4
:1400700001D0FFCF25971CD16627772709C080E091E0FB0173
:14008400E80FF91F84E180836F5F7F4F6030E1E07E0798F3F4
:140098000AE010E06ED1402F0F3F49F44EEB242F0AE010E0DB
:1400AC006BD12BE10BE010E067D15B9AD8C071D1002309F4F6
:1400C000D3C08E0170D18881863A09F0CDC05B9866D100232D
:1400D400E9F38E010F5F1F4F64D18981833509F056C05BD19F
:1400E8000023E9F38E010C5F1F4F59D154D10023E9F38E01C0
:1400FC000E5F1F4F52D14DD10023E9F38E014DD1A880BB2421
:140110002C810AE0C0D02DE301E3BDD000E213E002D12DE37B
:1401240004E3B7D06C8177272CC0262F0AE0B1D080E091E051
:14013800FB01E80FF91F208105E2A9D00CE211E0EED0CC241A
:14014C00EE24FF240FC002E310E0E7D09E0104EF8BD028807A
:14016000241A2882C21408F4C22CC70101967C0105E010E032
:1401740095012CD10E151F0550F70C2D20D16F5F7F4F2A80E6
:1401880033242616370608F0CECF8981823561F402D10023F2
:14019C00E9F38E010D5F1F4F00D19E010B8164D0088109D177
:1401B0008981873589F4F3D00023E9F38E010D5F1F4FF1D00C
:1401C400ECD00023E9F38E01ECD028810B8161D001E4F5D011
:1401D8008981833409F56627772718C0262F0AE056D02DE3DC
:1401EC0006E353D02DE303E350D000E213E095D09E0105E21D
:1402000039D080E091E0FB01E80FF91F288020826F5F7F4F1F
:140214006030E1E07E0720F301E4D1D08981823761F4BBD0C4
:140228000023E9F38E010D5F1F4FB9D00B811127A0D0088312
:14023C00C2D08981873791F4ACD00023E9F38E010D5F1F4FEB
:14025000AAD0A5D00023E9F38E01A5D028810B81112790D0DB
:1402640001E4ADD05B9A27CF00271127259608952A98802F11
:1402780080688EBD2DB427FEFDCF22242EBC2DB427FEFDCF6B
:14028C002EB4F90120822A9A08952A98802F8F778EBD2DB4DC
:1402A00027FEFDCF2EBD2DB427FEFDCF2A9A089584E085B999
:1402B4008FE284B9222428B88FEF87B983E08BB98EEF8AB93D
:1402C8008CE090E09093C5008093C40088E18093C1002CBC62
:1402DC002D9A2B982A982A9A08E210E01ED02A9881E08DBDC9
:1402F00081E58CBD00E117E216D080E38EBD2DB427FEFDCF0B
:140304002A9A08957BD0B8014427552705C003EE13E007D019
:140318004F5F5F4F46175707C0F366D0089582E0809381003E
:14032C002224332430928500209284008AE090E0801791079A
:1403400058F430928500209284002090840030908500201631
:140354003106C8F308950AC02090C00025FEFCCFF801208045
:140368002092C6000F5F1F4FF8012080222091F7089512BD5E
:14037C0001BDF89A00B508953FD012BD01BD20BD4FB7F894C0
:14039000FA9AF99AF999FECF4FBF37D008950091C000007858
:1403A40008952ED0A801F9DF002331F02090C600FA012082D2
:1403B800002701C001E025D008952090C00025FEFCCF0093E5
:1403CC00C60008950A921A928A939A93029FC001129F900D78
:1403E000039F900D8C0199918991199009900895E2E00CC08C
:1403F400FA92EA92DA92CA92BA92AA927A936A935A934A93C9
:140408000895E1E049915991E0FD089569917991E1FD0895C5
:14041C00A990B990E2FD0895C990D990E3FD0895E990F9908D
:0204300008952D
:00000001FF
